{
  "contractName": "LubyGame",
  "abi": [
    {
      "inputs": [],
      "stateMutability": "nonpayable",
      "type": "constructor"
    },
    {
      "anonymous": false,
      "inputs": [
        {
          "indexed": true,
          "internalType": "address",
          "name": "_owner",
          "type": "address"
        },
        {
          "indexed": true,
          "internalType": "address",
          "name": "_spender",
          "type": "address"
        },
        {
          "indexed": false,
          "internalType": "uint256",
          "name": "_value",
          "type": "uint256"
        }
      ],
      "name": "Approval",
      "type": "event"
    },
    {
      "anonymous": false,
      "inputs": [
        {
          "indexed": false,
          "internalType": "address",
          "name": "from",
          "type": "address"
        },
        {
          "indexed": false,
          "internalType": "address",
          "name": "to",
          "type": "address"
        },
        {
          "indexed": false,
          "internalType": "uint256",
          "name": "amount",
          "type": "uint256"
        }
      ],
      "name": "ClaimBalance",
      "type": "event"
    },
    {
      "anonymous": false,
      "inputs": [
        {
          "indexed": true,
          "internalType": "address",
          "name": "previousOwner",
          "type": "address"
        },
        {
          "indexed": true,
          "internalType": "address",
          "name": "newOwner",
          "type": "address"
        }
      ],
      "name": "OwnershipTransferred",
      "type": "event"
    },
    {
      "anonymous": false,
      "inputs": [
        {
          "indexed": false,
          "internalType": "address",
          "name": "from",
          "type": "address"
        },
        {
          "indexed": false,
          "internalType": "uint256",
          "name": "amount",
          "type": "uint256"
        }
      ],
      "name": "StartGame",
      "type": "event"
    },
    {
      "anonymous": false,
      "inputs": [
        {
          "indexed": true,
          "internalType": "address",
          "name": "_from",
          "type": "address"
        },
        {
          "indexed": true,
          "internalType": "address",
          "name": "_to",
          "type": "address"
        },
        {
          "indexed": false,
          "internalType": "uint256",
          "name": "_value",
          "type": "uint256"
        }
      ],
      "name": "Transfer",
      "type": "event"
    },
    {
      "anonymous": false,
      "inputs": [
        {
          "indexed": false,
          "internalType": "address",
          "name": "from",
          "type": "address"
        },
        {
          "indexed": false,
          "internalType": "address",
          "name": "to",
          "type": "address"
        },
        {
          "indexed": false,
          "internalType": "uint256",
          "name": "amount",
          "type": "uint256"
        }
      ],
      "name": "WithDraw",
      "type": "event"
    },
    {
      "inputs": [],
      "name": "address_contract",
      "outputs": [
        {
          "internalType": "address",
          "name": "",
          "type": "address"
        }
      ],
      "stateMutability": "view",
      "type": "function",
      "constant": true
    },
    {
      "inputs": [
        {
          "internalType": "address",
          "name": "_owner",
          "type": "address"
        }
      ],
      "name": "allowance",
      "outputs": [
        {
          "internalType": "uint256",
          "name": "remaining",
          "type": "uint256"
        }
      ],
      "stateMutability": "view",
      "type": "function",
      "constant": true
    },
    {
      "inputs": [
        {
          "internalType": "address",
          "name": "",
          "type": "address"
        },
        {
          "internalType": "address",
          "name": "",
          "type": "address"
        }
      ],
      "name": "allowed",
      "outputs": [
        {
          "internalType": "uint256",
          "name": "",
          "type": "uint256"
        }
      ],
      "stateMutability": "view",
      "type": "function",
      "constant": true
    },
    {
      "inputs": [
        {
          "internalType": "uint256",
          "name": "_value",
          "type": "uint256"
        }
      ],
      "name": "approve",
      "outputs": [
        {
          "internalType": "bool",
          "name": "success",
          "type": "bool"
        }
      ],
      "stateMutability": "nonpayable",
      "type": "function"
    },
    {
      "inputs": [
        {
          "internalType": "address",
          "name": "_owner",
          "type": "address"
        }
      ],
      "name": "balanceOf",
      "outputs": [
        {
          "internalType": "uint256",
          "name": "balance",
          "type": "uint256"
        }
      ],
      "stateMutability": "view",
      "type": "function",
      "constant": true
    },
    {
      "inputs": [
        {
          "internalType": "address",
          "name": "",
          "type": "address"
        }
      ],
      "name": "balances",
      "outputs": [
        {
          "internalType": "uint256",
          "name": "",
          "type": "uint256"
        }
      ],
      "stateMutability": "view",
      "type": "function",
      "constant": true
    },
    {
      "inputs": [],
      "name": "decimals",
      "outputs": [
        {
          "internalType": "uint8",
          "name": "",
          "type": "uint8"
        }
      ],
      "stateMutability": "view",
      "type": "function",
      "constant": true
    },
    {
      "inputs": [
        {
          "internalType": "address",
          "name": "from",
          "type": "address"
        }
      ],
      "name": "getBalance",
      "outputs": [
        {
          "internalType": "uint256",
          "name": "",
          "type": "uint256"
        }
      ],
      "stateMutability": "view",
      "type": "function",
      "constant": true
    },
    {
      "inputs": [
        {
          "internalType": "address",
          "name": "account",
          "type": "address"
        },
        {
          "internalType": "uint256",
          "name": "amount",
          "type": "uint256"
        }
      ],
      "name": "mint",
      "outputs": [],
      "stateMutability": "nonpayable",
      "type": "function"
    },
    {
      "inputs": [],
      "name": "minter",
      "outputs": [
        {
          "internalType": "address",
          "name": "",
          "type": "address"
        }
      ],
      "stateMutability": "view",
      "type": "function",
      "constant": true
    },
    {
      "inputs": [],
      "name": "name",
      "outputs": [
        {
          "internalType": "string",
          "name": "",
          "type": "string"
        }
      ],
      "stateMutability": "view",
      "type": "function",
      "constant": true
    },
    {
      "inputs": [],
      "name": "owner",
      "outputs": [
        {
          "internalType": "address",
          "name": "",
          "type": "address"
        }
      ],
      "stateMutability": "view",
      "type": "function",
      "constant": true
    },
    {
      "inputs": [],
      "name": "renounceOwnership",
      "outputs": [],
      "stateMutability": "nonpayable",
      "type": "function"
    },
    {
      "inputs": [],
      "name": "symbol",
      "outputs": [
        {
          "internalType": "string",
          "name": "",
          "type": "string"
        }
      ],
      "stateMutability": "view",
      "type": "function",
      "constant": true
    },
    {
      "inputs": [],
      "name": "totalSupply",
      "outputs": [
        {
          "internalType": "uint256",
          "name": "",
          "type": "uint256"
        }
      ],
      "stateMutability": "view",
      "type": "function",
      "constant": true
    },
    {
      "inputs": [
        {
          "internalType": "address",
          "name": "_to",
          "type": "address"
        },
        {
          "internalType": "uint256",
          "name": "_value",
          "type": "uint256"
        }
      ],
      "name": "transfer",
      "outputs": [
        {
          "internalType": "bool",
          "name": "success",
          "type": "bool"
        }
      ],
      "stateMutability": "nonpayable",
      "type": "function"
    },
    {
      "inputs": [
        {
          "internalType": "address",
          "name": "_from",
          "type": "address"
        },
        {
          "internalType": "address",
          "name": "_to",
          "type": "address"
        },
        {
          "internalType": "uint256",
          "name": "_value",
          "type": "uint256"
        }
      ],
      "name": "transferFrom",
      "outputs": [
        {
          "internalType": "bool",
          "name": "success",
          "type": "bool"
        }
      ],
      "stateMutability": "nonpayable",
      "type": "function"
    },
    {
      "inputs": [
        {
          "internalType": "address",
          "name": "newOwner",
          "type": "address"
        }
      ],
      "name": "transferOwnership",
      "outputs": [],
      "stateMutability": "nonpayable",
      "type": "function"
    },
    {
      "inputs": [
        {
          "internalType": "uint256",
          "name": "amount",
          "type": "uint256"
        }
      ],
      "name": "mintLbc",
      "outputs": [
        {
          "internalType": "contract Token",
          "name": "",
          "type": "address"
        }
      ],
      "stateMutability": "nonpayable",
      "type": "function"
    },
    {
      "inputs": [
        {
          "internalType": "uint256",
          "name": "amount",
          "type": "uint256"
        }
      ],
      "name": "startGame",
      "outputs": [],
      "stateMutability": "nonpayable",
      "type": "function"
    },
    {
      "inputs": [
        {
          "internalType": "uint256",
          "name": "amount",
          "type": "uint256"
        }
      ],
      "name": "correctAnswer",
      "outputs": [],
      "stateMutability": "nonpayable",
      "type": "function"
    },
    {
      "inputs": [
        {
          "internalType": "uint256",
          "name": "amount",
          "type": "uint256"
        }
      ],
      "name": "incorrectAnswer",
      "outputs": [],
      "stateMutability": "nonpayable",
      "type": "function"
    },
    {
      "inputs": [],
      "name": "withdraw",
      "outputs": [],
      "stateMutability": "nonpayable",
      "type": "function"
    },
    {
      "inputs": [
        {
          "internalType": "uint256",
          "name": "bonus",
          "type": "uint256"
        }
      ],
      "name": "claimBalance",
      "outputs": [],
      "stateMutability": "nonpayable",
      "type": "function"
    },
    {
      "inputs": [],
      "name": "getBalanceIndividual",
      "outputs": [
        {
          "internalType": "uint256",
          "name": "balance",
          "type": "uint256"
        }
      ],
      "stateMutability": "view",
      "type": "function",
      "constant": true
    }
  ],
  "bytecode": "0x60806040523480156200001157600080fd5b50678ac7230489e800006000803073ffffffffffffffffffffffffffffffffffffffff1673ffffffffffffffffffffffffffffffffffffffff16815260200190815260200160002081905550678ac7230489e800006002819055506040518060400160405280600881526020017f4c75627947616d6500000000000000000000000000000000000000000000000081525060039080519060200190620000b9929190620002db565b506012600460006101000a81548160ff021916908360ff1602179055506040518060400160405280600381526020017f4c424300000000000000000000000000000000000000000000000000000000008152506005908051906020019062000123929190620002db565b5033600660006101000a81548173ffffffffffffffffffffffffffffffffffffffff021916908373ffffffffffffffffffffffffffffffffffffffff16021790555030600760006101000a81548173ffffffffffffffffffffffffffffffffffffffff021916908373ffffffffffffffffffffffffffffffffffffffff160217905550620001c6620001ba6200020d60201b60201c565b6200021560201b60201c565b30600a60006101000a81548173ffffffffffffffffffffffffffffffffffffffff021916908373ffffffffffffffffffffffffffffffffffffffff160217905550620003f0565b600033905090565b6000600860009054906101000a900473ffffffffffffffffffffffffffffffffffffffff16905081600860006101000a81548173ffffffffffffffffffffffffffffffffffffffff021916908373ffffffffffffffffffffffffffffffffffffffff1602179055508173ffffffffffffffffffffffffffffffffffffffff168173ffffffffffffffffffffffffffffffffffffffff167f8be0079c531659141344cd1fd0a4f28419497f9722a3daafe3b4186f6b6457e060405160405180910390a35050565b828054620002e9906200038b565b90600052602060002090601f0160209004810192826200030d576000855562000359565b82601f106200032857805160ff191683800117855562000359565b8280016001018555821562000359579182015b82811115620003585782518255916020019190600101906200033b565b5b5090506200036891906200036c565b5090565b5b80821115620003875760008160009055506001016200036d565b5090565b60006002820490506001821680620003a457607f821691505b60208210811415620003bb57620003ba620003c1565b5b50919050565b7f4e487b7100000000000000000000000000000000000000000000000000000000600052602260045260246000fd5b61222d80620004006000396000f3fe608060405234801561001057600080fd5b50600436106101735760003560e01c806370a08231116100de578063a9059cbb11610097578063e5ed1d5911610071578063e5ed1d5914610450578063e9fad3961461046c578063f2fde38b14610488578063f8b2cb4f146104a457610173565b8063a9059cbb146103c0578063b759f954146103f0578063d075e09e1461042057610173565b806370a082311461030e578063715018a61461033e57806378fa151f146103485780638da5cb5b1461036657806394eeb5f51461038457806395d89b41146103a257610173565b8063335272b511610130578063335272b5146102505780633ccfd60b1461026c5780633e5beab91461027657806340c10f19146102a657806340d4a9ee146102c25780635c658165146102de57610173565b806306fdde0314610178578063075461721461019657806318160ddd146101b457806323b872dd146101d257806327e235e314610202578063313ce56714610232575b600080fd5b6101806104d4565b60405161018d9190611cad565b60405180910390f35b61019e610562565b6040516101ab9190611bfc565b60405180910390f35b6101bc610588565b6040516101c99190611dcf565b60405180910390f35b6101ec60048036038101906101e7919061195a565b61058e565b6040516101f99190611c77565b60405180910390f35b61021c600480360381019061021791906118f5565b610874565b6040516102299190611dcf565b60405180910390f35b61023a61088c565b6040516102479190611dea565b60405180910390f35b61026a60048036038101906102659190611a0e565b61089f565b005b6102746108fe565b005b610290600480360381019061028b91906118f5565b610ae6565b60405161029d9190611dcf565b60405180910390f35b6102c060048036038101906102bb91906119a9565b610b6c565b005b6102dc60048036038101906102d79190611a0e565b610cb4565b005b6102f860048036038101906102f3919061191e565b610d13565b6040516103059190611dcf565b60405180910390f35b610328600480360381019061032391906118f5565b610d38565b6040516103359190611dcf565b60405180910390f35b610346610d80565b005b610350610d94565b60405161035d9190611dcf565b60405180910390f35b61036e610ddb565b60405161037b9190611bfc565b60405180910390f35b61038c610e05565b6040516103999190611bfc565b60405180910390f35b6103aa610e2b565b6040516103b79190611cad565b60405180910390f35b6103da60048036038101906103d591906119a9565b610eb9565b6040516103e79190611c77565b60405180910390f35b61040a60048036038101906104059190611a0e565b6110bb565b6040516104179190611c77565b60405180910390f35b61043a60048036038101906104359190611a0e565b6111ce565b6040516104479190611c92565b60405180910390f35b61046a60048036038101906104659190611a0e565b61124a565b005b61048660048036038101906104819190611a0e565b61138e565b005b6104a2600480360381019061049d91906118f5565b6115d7565b005b6104be60048036038101906104b991906118f5565b61165b565b6040516104cb9190611dcf565b60405180910390f35b600380546104e190611f57565b80601f016020809104026020016040519081016040528092919081815260200182805461050d90611f57565b801561055a5780601f1061052f5761010080835404028352916020019161055a565b820191906000526020600020905b81548152906001019060200180831161053d57829003601f168201915b505050505081565b600660009054906101000a900473ffffffffffffffffffffffffffffffffffffffff1681565b60025481565b600080600160008673ffffffffffffffffffffffffffffffffffffffff1673ffffffffffffffffffffffffffffffffffffffff16815260200190815260200160002060008573ffffffffffffffffffffffffffffffffffffffff1673ffffffffffffffffffffffffffffffffffffffff168152602001908152602001600020549050826000808773ffffffffffffffffffffffffffffffffffffffff1673ffffffffffffffffffffffffffffffffffffffff168152602001908152602001600020541015801561065e5750828110155b61069d576040517f08c379a000000000000000000000000000000000000000000000000000000000815260040161069490611d8f565b60405180910390fd5b826000808673ffffffffffffffffffffffffffffffffffffffff1673ffffffffffffffffffffffffffffffffffffffff16815260200190815260200160002060008282546106eb9190611e21565b92505081905550826000808773ffffffffffffffffffffffffffffffffffffffff1673ffffffffffffffffffffffffffffffffffffffff16815260200190815260200160002060008282546107409190611e77565b925050819055507fffffffffffffffffffffffffffffffffffffffffffffffffffffffffffffffff8110156108035782600160008773ffffffffffffffffffffffffffffffffffffffff1673ffffffffffffffffffffffffffffffffffffffff16815260200190815260200160002060008673ffffffffffffffffffffffffffffffffffffffff1673ffffffffffffffffffffffffffffffffffffffff16815260200190815260200160002060008282546107fb9190611e77565b925050819055505b8373ffffffffffffffffffffffffffffffffffffffff168573ffffffffffffffffffffffffffffffffffffffff167fddf252ad1be2c89b69c2b068fc378daa952ba7f163c4a11628f55a4df523b3ef856040516108609190611dcf565b60405180910390a360019150509392505050565b60006020528060005260406000206000915090505481565b600460009054906101000a900460ff1681565b600081905080600960003373ffffffffffffffffffffffffffffffffffffffff1673ffffffffffffffffffffffffffffffffffffffff16815260200190815260200160002060008282546108f39190611e21565b925050819055505050565b610906611755565b6000600a60009054906101000a900473ffffffffffffffffffffffffffffffffffffffff1673ffffffffffffffffffffffffffffffffffffffff1663f8b2cb4f336040518263ffffffff1660e01b81526004016109639190611bfc565b60206040518083038186803b15801561097b57600080fd5b505afa15801561098f573d6000803e3d6000fd5b505050506040513d601f19601f820116820180604052508101906109b39190611a37565b9050600081116109f8576040517f08c379a00000000000000000000000000000000000000000000000000000000081526004016109ef90611d4f565b60405180910390fd5b600a60009054906101000a900473ffffffffffffffffffffffffffffffffffffffff1673ffffffffffffffffffffffffffffffffffffffff1663a9059cbb33836040518363ffffffff1660e01b8152600401610a55929190611c4e565b602060405180830381600087803b158015610a6f57600080fd5b505af1158015610a83573d6000803e3d6000fd5b505050506040513d601f19601f82011682018060405250810190610aa791906119e5565b507fec37a407e13e9283023de85016cfda169c84b8f0e8dcda13c92311ab8fee7ad5303383604051610adb93929190611c17565b60405180910390a150565b6000600160008373ffffffffffffffffffffffffffffffffffffffff1673ffffffffffffffffffffffffffffffffffffffff16815260200190815260200160002060003073ffffffffffffffffffffffffffffffffffffffff1673ffffffffffffffffffffffffffffffffffffffff168152602001908152602001600020549050919050565b600073ffffffffffffffffffffffffffffffffffffffff168273ffffffffffffffffffffffffffffffffffffffff161415610bdc576040517f08c379a0000000000000000000000000000000000000000000000000000000008152600401610bd390611daf565b60405180910390fd5b8060026000828254610bee9190611e21565b92505081905550806000808473ffffffffffffffffffffffffffffffffffffffff1673ffffffffffffffffffffffffffffffffffffffff1681526020019081526020016000206000828254610c439190611e21565b925050819055508173ffffffffffffffffffffffffffffffffffffffff16600073ffffffffffffffffffffffffffffffffffffffff167fddf252ad1be2c89b69c2b068fc378daa952ba7f163c4a11628f55a4df523b3ef83604051610ca89190611dcf565b60405180910390a35050565b600081905080600960003373ffffffffffffffffffffffffffffffffffffffff1673ffffffffffffffffffffffffffffffffffffffff1681526020019081526020016000206000828254610d089190611e77565b925050819055505050565b6001602052816000526040600020602052806000526040600020600091509150505481565b60008060008373ffffffffffffffffffffffffffffffffffffffff1673ffffffffffffffffffffffffffffffffffffffff168152602001908152602001600020549050919050565b610d88611755565b610d9260006117d3565b565b6000600960003373ffffffffffffffffffffffffffffffffffffffff1673ffffffffffffffffffffffffffffffffffffffff16815260200190815260200160002054905090565b6000600860009054906101000a900473ffffffffffffffffffffffffffffffffffffffff16905090565b600760009054906101000a900473ffffffffffffffffffffffffffffffffffffffff1681565b60058054610e3890611f57565b80601f0160208091040260200160405190810160405280929190818152602001828054610e6490611f57565b8015610eb15780601f10610e8657610100808354040283529160200191610eb1565b820191906000526020600020905b815481529060010190602001808311610e9457829003601f168201915b505050505081565b600081600080600760009054906101000a900473ffffffffffffffffffffffffffffffffffffffff1673ffffffffffffffffffffffffffffffffffffffff1673ffffffffffffffffffffffffffffffffffffffff168152602001908152602001600020541015610f5e576040517f08c379a0000000000000000000000000000000000000000000000000000000008152600401610f5590611ccf565b60405180910390fd5b81600080600760009054906101000a900473ffffffffffffffffffffffffffffffffffffffff1673ffffffffffffffffffffffffffffffffffffffff1673ffffffffffffffffffffffffffffffffffffffff1681526020019081526020016000206000828254610fce9190611e77565b92505081905550816000808573ffffffffffffffffffffffffffffffffffffffff1673ffffffffffffffffffffffffffffffffffffffff16815260200190815260200160002060008282546110239190611e21565b925050819055508273ffffffffffffffffffffffffffffffffffffffff16600760009054906101000a900473ffffffffffffffffffffffffffffffffffffffff1673ffffffffffffffffffffffffffffffffffffffff167fddf252ad1be2c89b69c2b068fc378daa952ba7f163c4a11628f55a4df523b3ef846040516110a99190611dcf565b60405180910390a36001905092915050565b600081600160003373ffffffffffffffffffffffffffffffffffffffff1673ffffffffffffffffffffffffffffffffffffffff16815260200190815260200160002060003073ffffffffffffffffffffffffffffffffffffffff1673ffffffffffffffffffffffffffffffffffffffff16815260200190815260200160002081905550600660009054906101000a900473ffffffffffffffffffffffffffffffffffffffff1673ffffffffffffffffffffffffffffffffffffffff163373ffffffffffffffffffffffffffffffffffffffff167f8c5be1e5ebec7d5bd14f71427d1e84f3dd0314c0f7b2291e5b200ac8c7c3b925846040516111bd9190611dcf565b60405180910390a360019050919050565b6000803090508073ffffffffffffffffffffffffffffffffffffffff166340c10f1933856040518363ffffffff1660e01b815260040161120f929190611c4e565b600060405180830381600087803b15801561122957600080fd5b505af115801561123d573d6000803e3d6000fd5b5050505080915050919050565b600a60009054906101000a900473ffffffffffffffffffffffffffffffffffffffff1673ffffffffffffffffffffffffffffffffffffffff166323b872dd3330846040518463ffffffff1660e01b81526004016112a993929190611c17565b602060405180830381600087803b1580156112c357600080fd5b505af11580156112d7573d6000803e3d6000fd5b505050506040513d601f19601f820116820180604052508101906112fb91906119e5565b5080600960003373ffffffffffffffffffffffffffffffffffffffff1673ffffffffffffffffffffffffffffffffffffffff168152602001908152602001600020600082825461134b9190611e21565b925050819055507f827a821cc7b9cae4c0baef42ee9cdeb791722ab1aa43532c255ea468ea6d5b1d3382604051611383929190611c4e565b60405180910390a150565b6000600960003373ffffffffffffffffffffffffffffffffffffffff1673ffffffffffffffffffffffffffffffffffffffff1681526020019081526020016000205411611410576040517f08c379a000000000000000000000000000000000000000000000000000000000815260040161140790611d2f565b60405180910390fd5b600a60009054906101000a900473ffffffffffffffffffffffffffffffffffffffff1673ffffffffffffffffffffffffffffffffffffffff1663a9059cbb3383600960003373ffffffffffffffffffffffffffffffffffffffff1673ffffffffffffffffffffffffffffffffffffffff1681526020019081526020016000205461149a9190611e21565b6040518363ffffffff1660e01b81526004016114b7929190611c4e565b602060405180830381600087803b1580156114d157600080fd5b505af11580156114e5573d6000803e3d6000fd5b505050506040513d601f19601f8201168201806040525081019061150991906119e5565b506000600960003373ffffffffffffffffffffffffffffffffffffffff1673ffffffffffffffffffffffffffffffffffffffff168152602001908152602001600020819055507fe43faf923664f15885a3df13dc48ec1028df5699618c436e8541460ef705ae83303383600960003373ffffffffffffffffffffffffffffffffffffffff1673ffffffffffffffffffffffffffffffffffffffff168152602001908152602001600020546115bd9190611e21565b6040516115cc93929190611c17565b60405180910390a150565b6115df611755565b600073ffffffffffffffffffffffffffffffffffffffff168173ffffffffffffffffffffffffffffffffffffffff16141561164f576040517f08c379a000000000000000000000000000000000000000000000000000000000815260040161164690611cef565b60405180910390fd5b611658816117d3565b50565b6000600660009054906101000a900473ffffffffffffffffffffffffffffffffffffffff1673ffffffffffffffffffffffffffffffffffffffff168273ffffffffffffffffffffffffffffffffffffffff16146116ed576040517f08c379a00000000000000000000000000000000000000000000000000000000081526004016116e490611d0f565b60405180910390fd5b600080600760009054906101000a900473ffffffffffffffffffffffffffffffffffffffff1673ffffffffffffffffffffffffffffffffffffffff1673ffffffffffffffffffffffffffffffffffffffff168152602001908152602001600020549050919050565b61175d611899565b73ffffffffffffffffffffffffffffffffffffffff1661177b610ddb565b73ffffffffffffffffffffffffffffffffffffffff16146117d1576040517f08c379a00000000000000000000000000000000000000000000000000000000081526004016117c890611d6f565b60405180910390fd5b565b6000600860009054906101000a900473ffffffffffffffffffffffffffffffffffffffff16905081600860006101000a81548173ffffffffffffffffffffffffffffffffffffffff021916908373ffffffffffffffffffffffffffffffffffffffff1602179055508173ffffffffffffffffffffffffffffffffffffffff168173ffffffffffffffffffffffffffffffffffffffff167f8be0079c531659141344cd1fd0a4f28419497f9722a3daafe3b4186f6b6457e060405160405180910390a35050565b600033905090565b6000813590506118b0816121b2565b92915050565b6000815190506118c5816121c9565b92915050565b6000813590506118da816121e0565b92915050565b6000815190506118ef816121e0565b92915050565b60006020828403121561190757600080fd5b6000611915848285016118a1565b91505092915050565b6000806040838503121561193157600080fd5b600061193f858286016118a1565b9250506020611950858286016118a1565b9150509250929050565b60008060006060848603121561196f57600080fd5b600061197d868287016118a1565b935050602061198e868287016118a1565b925050604061199f868287016118cb565b9150509250925092565b600080604083850312156119bc57600080fd5b60006119ca858286016118a1565b92505060206119db858286016118cb565b9150509250929050565b6000602082840312156119f757600080fd5b6000611a05848285016118b6565b91505092915050565b600060208284031215611a2057600080fd5b6000611a2e848285016118cb565b91505092915050565b600060208284031215611a4957600080fd5b6000611a57848285016118e0565b91505092915050565b611a6981611eab565b82525050565b611a7881611ebd565b82525050565b611a8781611f00565b82525050565b6000611a9882611e05565b611aa28185611e10565b9350611ab2818560208601611f24565b611abb81611fe7565b840191505092915050565b6000611ad3602f83611e10565b9150611ade82611ff8565b604082019050919050565b6000611af6602683611e10565b9150611b0182612047565b604082019050919050565b6000611b19601c83611e10565b9150611b2482612096565b602082019050919050565b6000611b3c601883611e10565b9150611b47826120bf565b602082019050919050565b6000611b5f600c83611e10565b9150611b6a826120e8565b602082019050919050565b6000611b82602083611e10565b9150611b8d82612111565b602082019050919050565b6000611ba5603983611e10565b9150611bb08261213a565b604082019050919050565b6000611bc8601f83611e10565b9150611bd382612189565b602082019050919050565b611be781611ee9565b82525050565b611bf681611ef3565b82525050565b6000602082019050611c116000830184611a60565b92915050565b6000606082019050611c2c6000830186611a60565b611c396020830185611a60565b611c466040830184611bde565b949350505050565b6000604082019050611c636000830185611a60565b611c706020830184611bde565b9392505050565b6000602082019050611c8c6000830184611a6f565b92915050565b6000602082019050611ca76000830184611a7e565b92915050565b60006020820190508181036000830152611cc78184611a8d565b905092915050565b60006020820190508181036000830152611ce881611ac6565b9050919050565b60006020820190508181036000830152611d0881611ae9565b9050919050565b60006020820190508181036000830152611d2881611b0c565b9050919050565b60006020820190508181036000830152611d4881611b2f565b9050919050565b60006020820190508181036000830152611d6881611b52565b9050919050565b60006020820190508181036000830152611d8881611b75565b9050919050565b60006020820190508181036000830152611da881611b98565b9050919050565b60006020820190508181036000830152611dc881611bbb565b9050919050565b6000602082019050611de46000830184611bde565b92915050565b6000602082019050611dff6000830184611bed565b92915050565b600081519050919050565b600082825260208201905092915050565b6000611e2c82611ee9565b9150611e3783611ee9565b9250827fffffffffffffffffffffffffffffffffffffffffffffffffffffffffffffffff03821115611e6c57611e6b611f89565b5b828201905092915050565b6000611e8282611ee9565b9150611e8d83611ee9565b925082821015611ea057611e9f611f89565b5b828203905092915050565b6000611eb682611ec9565b9050919050565b60008115159050919050565b600073ffffffffffffffffffffffffffffffffffffffff82169050919050565b6000819050919050565b600060ff82169050919050565b6000611f0b82611f12565b9050919050565b6000611f1d82611ec9565b9050919050565b60005b83811015611f42578082015181840152602081019050611f27565b83811115611f51576000848401525b50505050565b60006002820490506001821680611f6f57607f821691505b60208210811415611f8357611f82611fb8565b5b50919050565b7f4e487b7100000000000000000000000000000000000000000000000000000000600052601160045260246000fd5b7f4e487b7100000000000000000000000000000000000000000000000000000000600052602260045260246000fd5b6000601f19601f8301169050919050565b7f746f6b656e2062616c616e6365206973206c6f776572207468616e207468652060008201527f76616c7565207265717565737465640000000000000000000000000000000000602082015250565b7f4f776e61626c653a206e6577206f776e657220697320746865207a65726f206160008201527f6464726573730000000000000000000000000000000000000000000000000000602082015250565b7f4f6e6c79204f776e65722068617665207065726d697373696f6e732100000000600082015250565b7f496e646976696475616c2062616c616e63652069732030210000000000000000600082015250565b7f42616c616e636520697320300000000000000000000000000000000000000000600082015250565b7f4f776e61626c653a2063616c6c6572206973206e6f7420746865206f776e6572600082015250565b7f746f6b656e2062616c616e6365206f7220616c6c6f77616e6365206973206c6f60008201527f776572207468616e20616d6f756e742072657175657374656400000000000000602082015250565b7f45524332303a206d696e7420746f20746865207a65726f206164647265737300600082015250565b6121bb81611eab565b81146121c657600080fd5b50565b6121d281611ebd565b81146121dd57600080fd5b50565b6121e981611ee9565b81146121f457600080fd5b5056fea26469706673582212202e801acf3488eddac779b9127f5049535752d580e2fc36aa397fc9e34754faba64736f6c63430008040033",
  "immutableReferences": {},
  "source": "// SPDX-License-Identifier: MIT\npragma solidity ^0.8.4;\n\nimport \"../../node_modules/@openzeppelin/contracts/access/Ownable.sol\";\nimport \"../../node_modules/@openzeppelin/contracts/utils/Counters.sol\";\n\nimport \"./Bank.sol\";\n\n// Interface do customToken\n\ncontract LubyGame is ERC20, Ownable {\n    event StartGame(address from, uint256 amount);\n    event WithDraw(address from, address to, uint256 amount);\n    event ClaimBalance(address from, address to, uint256 amount);\n\n    mapping(address => uint256) private individualBalance;\n\n    Token bank;\n\n    constructor() {\n        bank = Token(address(this));\n    }\n\n    function mintLbc(uint256 amount) public returns (Token) {\n        Token contractAddress = Token(address(this));\n\n        contractAddress.mint(msg.sender, amount);\n\n        return contractAddress;\n    }\n\n    function startGame(uint256 amount) public {\n        bank.transferFrom(msg.sender, address(this), amount);\n\n        individualBalance[msg.sender] += amount;\n\n        emit StartGame(msg.sender, amount);\n    }\n\n    function correctAnswer(uint256 amount) public virtual {\n        uint256 value = amount;\n\n        individualBalance[msg.sender] += value;\n    }\n\n    function incorrectAnswer(uint256 amount) public virtual {\n        uint256 value = amount;\n\n        individualBalance[msg.sender] -= value;\n    }\n\n    function withdraw() public onlyOwner {\n        uint256 balance = bank.getBalance(msg.sender);\n        require(balance > 0, \"Balance is 0\");\n\n        bank.transfer(msg.sender, balance);\n\n        emit WithDraw(address(this), msg.sender, balance);\n    }\n\n    function claimBalance(uint256 bonus) public {\n        require(individualBalance[msg.sender] > 0, \"Individual balance is 0!\");\n\n        bank.transfer(msg.sender, individualBalance[msg.sender] + bonus);\n\n        individualBalance[msg.sender] = 0;\n\n        emit ClaimBalance(\n            address(this),\n            msg.sender,\n            individualBalance[msg.sender] + bonus\n        );\n    }\n\n    function getBalanceIndividual() public view returns (uint256 balance) {\n        return individualBalance[msg.sender];\n    }\n}\n",
  "sourcePath": "/home/jvpr-dev/Desktop/Luby/Lab/blockchain/Blockchain_Crypto_LubyGame/truffle/contracts/LubyCoin/LubyGame.sol",
  "compiler": {
    "name": "solc",
    "version": "0.8.4+commit.c7e474f2.Emscripten.clang"
  },
  "schemaVersion": "3.4.8",
  "updatedAt": "2022-07-28T23:22:21.270Z",
  "networkType": "ethereum",
  "devdoc": {
    "kind": "dev",
    "methods": {
      "allowance(address)": {
        "params": {
          "_owner": "The address of the account owning tokens"
        },
        "returns": {
          "remaining": "Amount of remaining tokens allowed to spent"
        }
      },
      "approve(uint256)": {
        "params": {
          "_value": "The amount of wei to be approved for transfer"
        },
        "returns": {
          "success": "Whether the approval was successful or not"
        }
      },
      "owner()": {
        "details": "Returns the address of the current owner."
      },
      "renounceOwnership()": {
        "details": "Leaves the contract without owner. It will not be possible to call `onlyOwner` functions anymore. Can only be called by the current owner. NOTE: Renouncing ownership will leave the contract without an owner, thereby removing any functionality that is only available to the owner."
      },
      "transfer(address,uint256)": {
        "params": {
          "_to": "The address of the recipient",
          "_value": "The amount of token to be transferred"
        },
        "returns": {
          "success": "Whether the transfer was successful or not"
        }
      },
      "transferFrom(address,address,uint256)": {
        "params": {
          "_from": "The address of the sender",
          "_to": "The address of the recipient",
          "_value": "The amount of token to be transferred"
        },
        "returns": {
          "success": "Whether the transfer was successful or not"
        }
      },
      "transferOwnership(address)": {
        "details": "Transfers ownership of the contract to a new account (`newOwner`). Can only be called by the current owner."
      }
    },
    "version": 1
  },
  "userdoc": {
    "kind": "user",
    "methods": {
      "transfer(address,uint256)": {
        "notice": "send `_value` token to `_to` from `msg.sender`"
      },
      "transferFrom(address,address,uint256)": {
        "notice": "send `_value` token to `_to` from `_from` on the condition it is approved by `_from`"
      }
    },
    "version": 1
  }
}