{
  "contractName": "LubyGame",
  "abi": [
    {
      "inputs": [],
      "stateMutability": "nonpayable",
      "type": "constructor"
    },
    {
      "anonymous": false,
      "inputs": [
        {
          "indexed": true,
          "internalType": "address",
          "name": "_owner",
          "type": "address"
        },
        {
          "indexed": true,
          "internalType": "address",
          "name": "_spender",
          "type": "address"
        },
        {
          "indexed": false,
          "internalType": "uint256",
          "name": "_value",
          "type": "uint256"
        }
      ],
      "name": "Approval",
      "type": "event"
    },
    {
      "anonymous": false,
      "inputs": [
        {
          "indexed": false,
          "internalType": "address",
          "name": "from",
          "type": "address"
        },
        {
          "indexed": false,
          "internalType": "address",
          "name": "to",
          "type": "address"
        },
        {
          "indexed": false,
          "internalType": "uint256",
          "name": "amount",
          "type": "uint256"
        }
      ],
      "name": "ClaimBalance",
      "type": "event"
    },
    {
      "anonymous": false,
      "inputs": [
        {
          "indexed": true,
          "internalType": "address",
          "name": "previousOwner",
          "type": "address"
        },
        {
          "indexed": true,
          "internalType": "address",
          "name": "newOwner",
          "type": "address"
        }
      ],
      "name": "OwnershipTransferred",
      "type": "event"
    },
    {
      "anonymous": false,
      "inputs": [
        {
          "indexed": false,
          "internalType": "address",
          "name": "from",
          "type": "address"
        },
        {
          "indexed": false,
          "internalType": "uint256",
          "name": "amount",
          "type": "uint256"
        }
      ],
      "name": "StartGame",
      "type": "event"
    },
    {
      "anonymous": false,
      "inputs": [
        {
          "indexed": true,
          "internalType": "address",
          "name": "_from",
          "type": "address"
        },
        {
          "indexed": true,
          "internalType": "address",
          "name": "_to",
          "type": "address"
        },
        {
          "indexed": false,
          "internalType": "uint256",
          "name": "_value",
          "type": "uint256"
        }
      ],
      "name": "Transfer",
      "type": "event"
    },
    {
      "anonymous": false,
      "inputs": [
        {
          "indexed": false,
          "internalType": "address",
          "name": "from",
          "type": "address"
        },
        {
          "indexed": false,
          "internalType": "address",
          "name": "to",
          "type": "address"
        },
        {
          "indexed": false,
          "internalType": "uint256",
          "name": "amount",
          "type": "uint256"
        }
      ],
      "name": "WithDraw",
      "type": "event"
    },
    {
      "inputs": [],
      "name": "address_contract",
      "outputs": [
        {
          "internalType": "address",
          "name": "",
          "type": "address"
        }
      ],
      "stateMutability": "view",
      "type": "function",
      "constant": true
    },
    {
      "inputs": [
        {
          "internalType": "address",
          "name": "_owner",
          "type": "address"
        }
      ],
      "name": "allowance",
      "outputs": [
        {
          "internalType": "uint256",
          "name": "remaining",
          "type": "uint256"
        }
      ],
      "stateMutability": "view",
      "type": "function",
      "constant": true
    },
    {
      "inputs": [
        {
          "internalType": "address",
          "name": "",
          "type": "address"
        },
        {
          "internalType": "address",
          "name": "",
          "type": "address"
        }
      ],
      "name": "allowed",
      "outputs": [
        {
          "internalType": "uint256",
          "name": "",
          "type": "uint256"
        }
      ],
      "stateMutability": "view",
      "type": "function",
      "constant": true
    },
    {
      "inputs": [
        {
          "internalType": "uint256",
          "name": "_value",
          "type": "uint256"
        }
      ],
      "name": "approve",
      "outputs": [
        {
          "internalType": "bool",
          "name": "success",
          "type": "bool"
        }
      ],
      "stateMutability": "nonpayable",
      "type": "function"
    },
    {
      "inputs": [
        {
          "internalType": "address",
          "name": "_owner",
          "type": "address"
        }
      ],
      "name": "balanceOf",
      "outputs": [
        {
          "internalType": "uint256",
          "name": "balance",
          "type": "uint256"
        }
      ],
      "stateMutability": "view",
      "type": "function",
      "constant": true
    },
    {
      "inputs": [
        {
          "internalType": "address",
          "name": "",
          "type": "address"
        }
      ],
      "name": "balances",
      "outputs": [
        {
          "internalType": "uint256",
          "name": "",
          "type": "uint256"
        }
      ],
      "stateMutability": "view",
      "type": "function",
      "constant": true
    },
    {
      "inputs": [],
      "name": "decimals",
      "outputs": [
        {
          "internalType": "uint8",
          "name": "",
          "type": "uint8"
        }
      ],
      "stateMutability": "view",
      "type": "function",
      "constant": true
    },
    {
      "inputs": [
        {
          "internalType": "address",
          "name": "from",
          "type": "address"
        }
      ],
      "name": "getBalance",
      "outputs": [
        {
          "internalType": "uint256",
          "name": "",
          "type": "uint256"
        }
      ],
      "stateMutability": "view",
      "type": "function",
      "constant": true
    },
    {
      "inputs": [
        {
          "internalType": "address",
          "name": "account",
          "type": "address"
        },
        {
          "internalType": "uint256",
          "name": "amount",
          "type": "uint256"
        }
      ],
      "name": "mint",
      "outputs": [],
      "stateMutability": "nonpayable",
      "type": "function"
    },
    {
      "inputs": [],
      "name": "minter",
      "outputs": [
        {
          "internalType": "address",
          "name": "",
          "type": "address"
        }
      ],
      "stateMutability": "view",
      "type": "function",
      "constant": true
    },
    {
      "inputs": [],
      "name": "name",
      "outputs": [
        {
          "internalType": "string",
          "name": "",
          "type": "string"
        }
      ],
      "stateMutability": "view",
      "type": "function",
      "constant": true
    },
    {
      "inputs": [],
      "name": "owner",
      "outputs": [
        {
          "internalType": "address",
          "name": "",
          "type": "address"
        }
      ],
      "stateMutability": "view",
      "type": "function",
      "constant": true
    },
    {
      "inputs": [],
      "name": "renounceOwnership",
      "outputs": [],
      "stateMutability": "nonpayable",
      "type": "function"
    },
    {
      "inputs": [],
      "name": "symbol",
      "outputs": [
        {
          "internalType": "string",
          "name": "",
          "type": "string"
        }
      ],
      "stateMutability": "view",
      "type": "function",
      "constant": true
    },
    {
      "inputs": [],
      "name": "totalSupply",
      "outputs": [
        {
          "internalType": "uint256",
          "name": "",
          "type": "uint256"
        }
      ],
      "stateMutability": "view",
      "type": "function",
      "constant": true
    },
    {
      "inputs": [
        {
          "internalType": "address",
          "name": "_to",
          "type": "address"
        },
        {
          "internalType": "uint256",
          "name": "_value",
          "type": "uint256"
        }
      ],
      "name": "transfer",
      "outputs": [
        {
          "internalType": "bool",
          "name": "success",
          "type": "bool"
        }
      ],
      "stateMutability": "nonpayable",
      "type": "function"
    },
    {
      "inputs": [
        {
          "internalType": "address",
          "name": "_from",
          "type": "address"
        },
        {
          "internalType": "address",
          "name": "_to",
          "type": "address"
        },
        {
          "internalType": "uint256",
          "name": "_value",
          "type": "uint256"
        }
      ],
      "name": "transferFrom",
      "outputs": [
        {
          "internalType": "bool",
          "name": "success",
          "type": "bool"
        }
      ],
      "stateMutability": "nonpayable",
      "type": "function"
    },
    {
      "inputs": [
        {
          "internalType": "address",
          "name": "newOwner",
          "type": "address"
        }
      ],
      "name": "transferOwnership",
      "outputs": [],
      "stateMutability": "nonpayable",
      "type": "function"
    },
    {
      "inputs": [
        {
          "internalType": "uint256",
          "name": "amount",
          "type": "uint256"
        }
      ],
      "name": "mintLbc",
      "outputs": [
        {
          "internalType": "bool",
          "name": "",
          "type": "bool"
        }
      ],
      "stateMutability": "nonpayable",
      "type": "function"
    },
    {
      "inputs": [
        {
          "internalType": "uint256",
          "name": "amount",
          "type": "uint256"
        }
      ],
      "name": "startGame",
      "outputs": [],
      "stateMutability": "nonpayable",
      "type": "function"
    },
    {
      "inputs": [
        {
          "internalType": "uint256",
          "name": "amount",
          "type": "uint256"
        }
      ],
      "name": "correctAnswer",
      "outputs": [],
      "stateMutability": "nonpayable",
      "type": "function"
    },
    {
      "inputs": [
        {
          "internalType": "uint256",
          "name": "amount",
          "type": "uint256"
        }
      ],
      "name": "incorrectAnswer",
      "outputs": [],
      "stateMutability": "nonpayable",
      "type": "function"
    },
    {
      "inputs": [],
      "name": "withdraw",
      "outputs": [],
      "stateMutability": "nonpayable",
      "type": "function"
    },
    {
      "inputs": [
        {
          "internalType": "uint256",
          "name": "bonus",
          "type": "uint256"
        }
      ],
      "name": "claimBalance",
      "outputs": [],
      "stateMutability": "nonpayable",
      "type": "function"
    },
    {
      "inputs": [],
      "name": "getBalanceIndividual",
      "outputs": [
        {
          "internalType": "uint256",
          "name": "balance",
          "type": "uint256"
        }
      ],
      "stateMutability": "view",
      "type": "function",
      "constant": true
    }
  ],
  "bytecode": "0x60806040523480156200001157600080fd5b50678ac7230489e800006000803073ffffffffffffffffffffffffffffffffffffffff1673ffffffffffffffffffffffffffffffffffffffff16815260200190815260200160002081905550678ac7230489e800006002819055506040518060400160405280600881526020017f4c75627947616d6500000000000000000000000000000000000000000000000081525060039080519060200190620000b9929190620002db565b506012600460006101000a81548160ff021916908360ff1602179055506040518060400160405280600381526020017f4c424300000000000000000000000000000000000000000000000000000000008152506005908051906020019062000123929190620002db565b5033600660006101000a81548173ffffffffffffffffffffffffffffffffffffffff021916908373ffffffffffffffffffffffffffffffffffffffff16021790555030600760006101000a81548173ffffffffffffffffffffffffffffffffffffffff021916908373ffffffffffffffffffffffffffffffffffffffff160217905550620001c6620001ba6200020d60201b60201c565b6200021560201b60201c565b30600a60006101000a81548173ffffffffffffffffffffffffffffffffffffffff021916908373ffffffffffffffffffffffffffffffffffffffff160217905550620003f0565b600033905090565b6000600860009054906101000a900473ffffffffffffffffffffffffffffffffffffffff16905081600860006101000a81548173ffffffffffffffffffffffffffffffffffffffff021916908373ffffffffffffffffffffffffffffffffffffffff1602179055508173ffffffffffffffffffffffffffffffffffffffff168173ffffffffffffffffffffffffffffffffffffffff167f8be0079c531659141344cd1fd0a4f28419497f9722a3daafe3b4186f6b6457e060405160405180910390a35050565b828054620002e9906200038b565b90600052602060002090601f0160209004810192826200030d576000855562000359565b82601f106200032857805160ff191683800117855562000359565b8280016001018555821562000359579182015b82811115620003585782518255916020019190600101906200033b565b5b5090506200036891906200036c565b5090565b5b80821115620003875760008160009055506001016200036d565b5090565b60006002820490506001821680620003a457607f821691505b60208210811415620003bb57620003ba620003c1565b5b50919050565b7f4e487b7100000000000000000000000000000000000000000000000000000000600052602260045260246000fd5b61222380620004006000396000f3fe608060405234801561001057600080fd5b50600436106101735760003560e01c806370a08231116100de578063a9059cbb11610097578063e5ed1d5911610071578063e5ed1d5914610450578063e9fad3961461046c578063f2fde38b14610488578063f8b2cb4f146104a457610173565b8063a9059cbb146103c0578063b759f954146103f0578063d075e09e1461042057610173565b806370a082311461030e578063715018a61461033e57806378fa151f146103485780638da5cb5b1461036657806394eeb5f51461038457806395d89b41146103a257610173565b8063335272b511610130578063335272b5146102505780633ccfd60b1461026c5780633e5beab91461027657806340c10f19146102a657806340d4a9ee146102c25780635c658165146102de57610173565b806306fdde0314610178578063075461721461019657806318160ddd146101b457806323b872dd146101d257806327e235e314610202578063313ce56714610232575b600080fd5b6101806104d4565b60405161018d9190611cc7565b60405180910390f35b61019e610562565b6040516101ab9190611c31565b60405180910390f35b6101bc610588565b6040516101c99190611de9565b60405180910390f35b6101ec60048036038101906101e7919061199e565b61058e565b6040516101f99190611cac565b60405180910390f35b61021c60048036038101906102179190611939565b610874565b6040516102299190611de9565b60405180910390f35b61023a61088c565b6040516102479190611e04565b60405180910390f35b61026a60048036038101906102659190611a52565b61089f565b005b6102746108fe565b005b610290600480360381019061028b9190611939565b610ae6565b60405161029d9190611de9565b60405180910390f35b6102c060048036038101906102bb91906119ed565b610b6c565b005b6102dc60048036038101906102d79190611a52565b610cb4565b005b6102f860048036038101906102f39190611962565b610d13565b6040516103059190611de9565b60405180910390f35b61032860048036038101906103239190611939565b610d38565b6040516103359190611de9565b60405180910390f35b610346610d80565b005b610350610d94565b60405161035d9190611de9565b60405180910390f35b61036e610ddb565b60405161037b9190611c31565b60405180910390f35b61038c610e05565b6040516103999190611c31565b60405180910390f35b6103aa610e2b565b6040516103b79190611cc7565b60405180910390f35b6103da60048036038101906103d591906119ed565b610eb9565b6040516103e79190611cac565b60405180910390f35b61040a60048036038101906104059190611a52565b6110bb565b6040516104179190611cac565b60405180910390f35b61043a60048036038101906104359190611a52565b6111ce565b6040516104479190611cac565b60405180910390f35b61046a60048036038101906104659190611a52565b61128e565b005b61048660048036038101906104819190611a52565b6113d2565b005b6104a2600480360381019061049d9190611939565b61161b565b005b6104be60048036038101906104b99190611939565b61169f565b6040516104cb9190611de9565b60405180910390f35b600380546104e190611f4d565b80601f016020809104026020016040519081016040528092919081815260200182805461050d90611f4d565b801561055a5780601f1061052f5761010080835404028352916020019161055a565b820191906000526020600020905b81548152906001019060200180831161053d57829003601f168201915b505050505081565b600660009054906101000a900473ffffffffffffffffffffffffffffffffffffffff1681565b60025481565b600080600160008673ffffffffffffffffffffffffffffffffffffffff1673ffffffffffffffffffffffffffffffffffffffff16815260200190815260200160002060008573ffffffffffffffffffffffffffffffffffffffff1673ffffffffffffffffffffffffffffffffffffffff168152602001908152602001600020549050826000808773ffffffffffffffffffffffffffffffffffffffff1673ffffffffffffffffffffffffffffffffffffffff168152602001908152602001600020541015801561065e5750828110155b61069d576040517f08c379a000000000000000000000000000000000000000000000000000000000815260040161069490611da9565b60405180910390fd5b826000808673ffffffffffffffffffffffffffffffffffffffff1673ffffffffffffffffffffffffffffffffffffffff16815260200190815260200160002060008282546106eb9190611e3b565b92505081905550826000808773ffffffffffffffffffffffffffffffffffffffff1673ffffffffffffffffffffffffffffffffffffffff16815260200190815260200160002060008282546107409190611e91565b925050819055507fffffffffffffffffffffffffffffffffffffffffffffffffffffffffffffffff8110156108035782600160008773ffffffffffffffffffffffffffffffffffffffff1673ffffffffffffffffffffffffffffffffffffffff16815260200190815260200160002060008673ffffffffffffffffffffffffffffffffffffffff1673ffffffffffffffffffffffffffffffffffffffff16815260200190815260200160002060008282546107fb9190611e91565b925050819055505b8373ffffffffffffffffffffffffffffffffffffffff168573ffffffffffffffffffffffffffffffffffffffff167fddf252ad1be2c89b69c2b068fc378daa952ba7f163c4a11628f55a4df523b3ef856040516108609190611de9565b60405180910390a360019150509392505050565b60006020528060005260406000206000915090505481565b600460009054906101000a900460ff1681565b600081905080600960003373ffffffffffffffffffffffffffffffffffffffff1673ffffffffffffffffffffffffffffffffffffffff16815260200190815260200160002060008282546108f39190611e3b565b925050819055505050565b610906611799565b6000600a60009054906101000a900473ffffffffffffffffffffffffffffffffffffffff1673ffffffffffffffffffffffffffffffffffffffff1663f8b2cb4f336040518263ffffffff1660e01b81526004016109639190611c31565b60206040518083038186803b15801561097b57600080fd5b505afa15801561098f573d6000803e3d6000fd5b505050506040513d601f19601f820116820180604052508101906109b39190611a7b565b9050600081116109f8576040517f08c379a00000000000000000000000000000000000000000000000000000000081526004016109ef90611d69565b60405180910390fd5b600a60009054906101000a900473ffffffffffffffffffffffffffffffffffffffff1673ffffffffffffffffffffffffffffffffffffffff1663a9059cbb33836040518363ffffffff1660e01b8152600401610a55929190611c83565b602060405180830381600087803b158015610a6f57600080fd5b505af1158015610a83573d6000803e3d6000fd5b505050506040513d601f19601f82011682018060405250810190610aa79190611a29565b507fec37a407e13e9283023de85016cfda169c84b8f0e8dcda13c92311ab8fee7ad5303383604051610adb93929190611c4c565b60405180910390a150565b6000600160008373ffffffffffffffffffffffffffffffffffffffff1673ffffffffffffffffffffffffffffffffffffffff16815260200190815260200160002060003073ffffffffffffffffffffffffffffffffffffffff1673ffffffffffffffffffffffffffffffffffffffff168152602001908152602001600020549050919050565b600073ffffffffffffffffffffffffffffffffffffffff168273ffffffffffffffffffffffffffffffffffffffff161415610bdc576040517f08c379a0000000000000000000000000000000000000000000000000000000008152600401610bd390611dc9565b60405180910390fd5b8060026000828254610bee9190611e3b565b92505081905550806000808473ffffffffffffffffffffffffffffffffffffffff1673ffffffffffffffffffffffffffffffffffffffff1681526020019081526020016000206000828254610c439190611e3b565b925050819055508173ffffffffffffffffffffffffffffffffffffffff16600073ffffffffffffffffffffffffffffffffffffffff167fddf252ad1be2c89b69c2b068fc378daa952ba7f163c4a11628f55a4df523b3ef83604051610ca89190611de9565b60405180910390a35050565b600081905080600960003373ffffffffffffffffffffffffffffffffffffffff1673ffffffffffffffffffffffffffffffffffffffff1681526020019081526020016000206000828254610d089190611e91565b925050819055505050565b6001602052816000526040600020602052806000526040600020600091509150505481565b60008060008373ffffffffffffffffffffffffffffffffffffffff1673ffffffffffffffffffffffffffffffffffffffff168152602001908152602001600020549050919050565b610d88611799565b610d926000611817565b565b6000600960003373ffffffffffffffffffffffffffffffffffffffff1673ffffffffffffffffffffffffffffffffffffffff16815260200190815260200160002054905090565b6000600860009054906101000a900473ffffffffffffffffffffffffffffffffffffffff16905090565b600760009054906101000a900473ffffffffffffffffffffffffffffffffffffffff1681565b60058054610e3890611f4d565b80601f0160208091040260200160405190810160405280929190818152602001828054610e6490611f4d565b8015610eb15780601f10610e8657610100808354040283529160200191610eb1565b820191906000526020600020905b815481529060010190602001808311610e9457829003601f168201915b505050505081565b600081600080600760009054906101000a900473ffffffffffffffffffffffffffffffffffffffff1673ffffffffffffffffffffffffffffffffffffffff1673ffffffffffffffffffffffffffffffffffffffff168152602001908152602001600020541015610f5e576040517f08c379a0000000000000000000000000000000000000000000000000000000008152600401610f5590611ce9565b60405180910390fd5b81600080600760009054906101000a900473ffffffffffffffffffffffffffffffffffffffff1673ffffffffffffffffffffffffffffffffffffffff1673ffffffffffffffffffffffffffffffffffffffff1681526020019081526020016000206000828254610fce9190611e91565b92505081905550816000808573ffffffffffffffffffffffffffffffffffffffff1673ffffffffffffffffffffffffffffffffffffffff16815260200190815260200160002060008282546110239190611e3b565b925050819055508273ffffffffffffffffffffffffffffffffffffffff16600760009054906101000a900473ffffffffffffffffffffffffffffffffffffffff1673ffffffffffffffffffffffffffffffffffffffff167fddf252ad1be2c89b69c2b068fc378daa952ba7f163c4a11628f55a4df523b3ef846040516110a99190611de9565b60405180910390a36001905092915050565b600081600160003373ffffffffffffffffffffffffffffffffffffffff1673ffffffffffffffffffffffffffffffffffffffff16815260200190815260200160002060003073ffffffffffffffffffffffffffffffffffffffff1673ffffffffffffffffffffffffffffffffffffffff16815260200190815260200160002081905550600660009054906101000a900473ffffffffffffffffffffffffffffffffffffffff1673ffffffffffffffffffffffffffffffffffffffff163373ffffffffffffffffffffffffffffffffffffffff167f8c5be1e5ebec7d5bd14f71427d1e84f3dd0314c0f7b2291e5b200ac8c7c3b925846040516111bd9190611de9565b60405180910390a360019050919050565b600080309050600a60009054906101000a900473ffffffffffffffffffffffffffffffffffffffff1673ffffffffffffffffffffffffffffffffffffffff1663a9059cbb33856040518363ffffffff1660e01b8152600401611231929190611c83565b602060405180830381600087803b15801561124b57600080fd5b505af115801561125f573d6000803e3d6000fd5b505050506040513d601f19601f820116820180604052508101906112839190611a29565b506001915050919050565b600a60009054906101000a900473ffffffffffffffffffffffffffffffffffffffff1673ffffffffffffffffffffffffffffffffffffffff166323b872dd3330846040518463ffffffff1660e01b81526004016112ed93929190611c4c565b602060405180830381600087803b15801561130757600080fd5b505af115801561131b573d6000803e3d6000fd5b505050506040513d601f19601f8201168201806040525081019061133f9190611a29565b5080600960003373ffffffffffffffffffffffffffffffffffffffff1673ffffffffffffffffffffffffffffffffffffffff168152602001908152602001600020600082825461138f9190611e3b565b925050819055507f827a821cc7b9cae4c0baef42ee9cdeb791722ab1aa43532c255ea468ea6d5b1d33826040516113c7929190611c83565b60405180910390a150565b6000600960003373ffffffffffffffffffffffffffffffffffffffff1673ffffffffffffffffffffffffffffffffffffffff1681526020019081526020016000205411611454576040517f08c379a000000000000000000000000000000000000000000000000000000000815260040161144b90611d49565b60405180910390fd5b600a60009054906101000a900473ffffffffffffffffffffffffffffffffffffffff1673ffffffffffffffffffffffffffffffffffffffff1663a9059cbb3383600960003373ffffffffffffffffffffffffffffffffffffffff1673ffffffffffffffffffffffffffffffffffffffff168152602001908152602001600020546114de9190611e3b565b6040518363ffffffff1660e01b81526004016114fb929190611c83565b602060405180830381600087803b15801561151557600080fd5b505af1158015611529573d6000803e3d6000fd5b505050506040513d601f19601f8201168201806040525081019061154d9190611a29565b506000600960003373ffffffffffffffffffffffffffffffffffffffff1673ffffffffffffffffffffffffffffffffffffffff168152602001908152602001600020819055507fe43faf923664f15885a3df13dc48ec1028df5699618c436e8541460ef705ae83303383600960003373ffffffffffffffffffffffffffffffffffffffff1673ffffffffffffffffffffffffffffffffffffffff168152602001908152602001600020546116019190611e3b565b60405161161093929190611c4c565b60405180910390a150565b611623611799565b600073ffffffffffffffffffffffffffffffffffffffff168173ffffffffffffffffffffffffffffffffffffffff161415611693576040517f08c379a000000000000000000000000000000000000000000000000000000000815260040161168a90611d09565b60405180910390fd5b61169c81611817565b50565b6000600660009054906101000a900473ffffffffffffffffffffffffffffffffffffffff1673ffffffffffffffffffffffffffffffffffffffff168273ffffffffffffffffffffffffffffffffffffffff1614611731576040517f08c379a000000000000000000000000000000000000000000000000000000000815260040161172890611d29565b60405180910390fd5b600080600760009054906101000a900473ffffffffffffffffffffffffffffffffffffffff1673ffffffffffffffffffffffffffffffffffffffff1673ffffffffffffffffffffffffffffffffffffffff168152602001908152602001600020549050919050565b6117a16118dd565b73ffffffffffffffffffffffffffffffffffffffff166117bf610ddb565b73ffffffffffffffffffffffffffffffffffffffff1614611815576040517f08c379a000000000000000000000000000000000000000000000000000000000815260040161180c90611d89565b60405180910390fd5b565b6000600860009054906101000a900473ffffffffffffffffffffffffffffffffffffffff16905081600860006101000a81548173ffffffffffffffffffffffffffffffffffffffff021916908373ffffffffffffffffffffffffffffffffffffffff1602179055508173ffffffffffffffffffffffffffffffffffffffff168173ffffffffffffffffffffffffffffffffffffffff167f8be0079c531659141344cd1fd0a4f28419497f9722a3daafe3b4186f6b6457e060405160405180910390a35050565b600033905090565b6000813590506118f4816121a8565b92915050565b600081519050611909816121bf565b92915050565b60008135905061191e816121d6565b92915050565b600081519050611933816121d6565b92915050565b60006020828403121561194b57600080fd5b6000611959848285016118e5565b91505092915050565b6000806040838503121561197557600080fd5b6000611983858286016118e5565b9250506020611994858286016118e5565b9150509250929050565b6000806000606084860312156119b357600080fd5b60006119c1868287016118e5565b93505060206119d2868287016118e5565b92505060406119e38682870161190f565b9150509250925092565b60008060408385031215611a0057600080fd5b6000611a0e858286016118e5565b9250506020611a1f8582860161190f565b9150509250929050565b600060208284031215611a3b57600080fd5b6000611a49848285016118fa565b91505092915050565b600060208284031215611a6457600080fd5b6000611a728482850161190f565b91505092915050565b600060208284031215611a8d57600080fd5b6000611a9b84828501611924565b91505092915050565b611aad81611ec5565b82525050565b611abc81611ed7565b82525050565b6000611acd82611e1f565b611ad78185611e2a565b9350611ae7818560208601611f1a565b611af081611fdd565b840191505092915050565b6000611b08602f83611e2a565b9150611b1382611fee565b604082019050919050565b6000611b2b602683611e2a565b9150611b368261203d565b604082019050919050565b6000611b4e601c83611e2a565b9150611b598261208c565b602082019050919050565b6000611b71601883611e2a565b9150611b7c826120b5565b602082019050919050565b6000611b94600c83611e2a565b9150611b9f826120de565b602082019050919050565b6000611bb7602083611e2a565b9150611bc282612107565b602082019050919050565b6000611bda603983611e2a565b9150611be582612130565b604082019050919050565b6000611bfd601f83611e2a565b9150611c088261217f565b602082019050919050565b611c1c81611f03565b82525050565b611c2b81611f0d565b82525050565b6000602082019050611c466000830184611aa4565b92915050565b6000606082019050611c616000830186611aa4565b611c6e6020830185611aa4565b611c7b6040830184611c13565b949350505050565b6000604082019050611c986000830185611aa4565b611ca56020830184611c13565b9392505050565b6000602082019050611cc16000830184611ab3565b92915050565b60006020820190508181036000830152611ce18184611ac2565b905092915050565b60006020820190508181036000830152611d0281611afb565b9050919050565b60006020820190508181036000830152611d2281611b1e565b9050919050565b60006020820190508181036000830152611d4281611b41565b9050919050565b60006020820190508181036000830152611d6281611b64565b9050919050565b60006020820190508181036000830152611d8281611b87565b9050919050565b60006020820190508181036000830152611da281611baa565b9050919050565b60006020820190508181036000830152611dc281611bcd565b9050919050565b60006020820190508181036000830152611de281611bf0565b9050919050565b6000602082019050611dfe6000830184611c13565b92915050565b6000602082019050611e196000830184611c22565b92915050565b600081519050919050565b600082825260208201905092915050565b6000611e4682611f03565b9150611e5183611f03565b9250827fffffffffffffffffffffffffffffffffffffffffffffffffffffffffffffffff03821115611e8657611e85611f7f565b5b828201905092915050565b6000611e9c82611f03565b9150611ea783611f03565b925082821015611eba57611eb9611f7f565b5b828203905092915050565b6000611ed082611ee3565b9050919050565b60008115159050919050565b600073ffffffffffffffffffffffffffffffffffffffff82169050919050565b6000819050919050565b600060ff82169050919050565b60005b83811015611f38578082015181840152602081019050611f1d565b83811115611f47576000848401525b50505050565b60006002820490506001821680611f6557607f821691505b60208210811415611f7957611f78611fae565b5b50919050565b7f4e487b7100000000000000000000000000000000000000000000000000000000600052601160045260246000fd5b7f4e487b7100000000000000000000000000000000000000000000000000000000600052602260045260246000fd5b6000601f19601f8301169050919050565b7f746f6b656e2062616c616e6365206973206c6f776572207468616e207468652060008201527f76616c7565207265717565737465640000000000000000000000000000000000602082015250565b7f4f776e61626c653a206e6577206f776e657220697320746865207a65726f206160008201527f6464726573730000000000000000000000000000000000000000000000000000602082015250565b7f4f6e6c79204f776e65722068617665207065726d697373696f6e732100000000600082015250565b7f496e646976696475616c2062616c616e63652069732030210000000000000000600082015250565b7f42616c616e636520697320300000000000000000000000000000000000000000600082015250565b7f4f776e61626c653a2063616c6c6572206973206e6f7420746865206f776e6572600082015250565b7f746f6b656e2062616c616e6365206f7220616c6c6f77616e6365206973206c6f60008201527f776572207468616e20616d6f756e742072657175657374656400000000000000602082015250565b7f45524332303a206d696e7420746f20746865207a65726f206164647265737300600082015250565b6121b181611ec5565b81146121bc57600080fd5b50565b6121c881611ed7565b81146121d357600080fd5b50565b6121df81611f03565b81146121ea57600080fd5b5056fea2646970667358221220ed213be442d81a2cdc915985c78dc62e80430b35b9cb6a67ec7137340ae54bf864736f6c63430008040033",
  "immutableReferences": {},
  "source": "// SPDX-License-Identifier: MIT\npragma solidity ^0.8.4;\n\nimport \"../../node_modules/@openzeppelin/contracts/access/Ownable.sol\";\nimport \"../../node_modules/@openzeppelin/contracts/utils/Counters.sol\";\n\nimport \"./Bank.sol\";\n\n// Interface do customToken\n\ncontract LubyGame is ERC20, Ownable {\n    event StartGame(address from, uint256 amount);\n    event WithDraw(address from, address to, uint256 amount);\n    event ClaimBalance(address from, address to, uint256 amount);\n\n    mapping(address => uint256) private individualBalance;\n\n    Token bank;\n\n    constructor() {\n        bank = Token(address(this));\n    }\n\n    function mintLbc(uint256 amount) public returns (bool) {\n        Token contractAddress = Token(address(this));\n\n        bank.transfer(msg.sender, amount);\n\n        return true;\n    }\n\n    function startGame(uint256 amount) public {\n        bank.transferFrom(msg.sender, address(this), amount);\n\n        individualBalance[msg.sender] += amount;\n\n        emit StartGame(msg.sender, amount);\n    }\n\n    function correctAnswer(uint256 amount) public virtual {\n        uint256 value = amount;\n\n        individualBalance[msg.sender] += value;\n    }\n\n    function incorrectAnswer(uint256 amount) public virtual {\n        uint256 value = amount;\n\n        individualBalance[msg.sender] -= value;\n    }\n\n    function withdraw() public onlyOwner {\n        uint256 balance = bank.getBalance(msg.sender);\n        require(balance > 0, \"Balance is 0\");\n\n        bank.transfer(msg.sender, balance);\n\n        emit WithDraw(address(this), msg.sender, balance);\n    }\n\n    function claimBalance(uint256 bonus) public {\n        require(individualBalance[msg.sender] > 0, \"Individual balance is 0!\");\n\n        bank.transfer(msg.sender, individualBalance[msg.sender] + bonus);\n\n        individualBalance[msg.sender] = 0;\n\n        emit ClaimBalance(\n            address(this),\n            msg.sender,\n            individualBalance[msg.sender] + bonus\n        );\n    }\n\n    function getBalanceIndividual() public view returns (uint256 balance) {\n        return individualBalance[msg.sender];\n    }\n}\n",
  "sourcePath": "/home/jvpr-dev/Desktop/Luby/Lab/blockchain/Blockchain_Crypto_LubyGame/truffle/contracts/LubyCoin/LubyGame.sol",
  "compiler": {
    "name": "solc",
    "version": "0.8.4+commit.c7e474f2.Emscripten.clang"
  },
  "schemaVersion": "3.4.8",
  "updatedAt": "2022-07-27T01:16:54.485Z",
  "networkType": "ethereum",
  "devdoc": {
    "kind": "dev",
    "methods": {
      "allowance(address)": {
        "params": {
          "_owner": "The address of the account owning tokens"
        },
        "returns": {
          "remaining": "Amount of remaining tokens allowed to spent"
        }
      },
      "approve(uint256)": {
        "params": {
          "_value": "The amount of wei to be approved for transfer"
        },
        "returns": {
          "success": "Whether the approval was successful or not"
        }
      },
      "owner()": {
        "details": "Returns the address of the current owner."
      },
      "renounceOwnership()": {
        "details": "Leaves the contract without owner. It will not be possible to call `onlyOwner` functions anymore. Can only be called by the current owner. NOTE: Renouncing ownership will leave the contract without an owner, thereby removing any functionality that is only available to the owner."
      },
      "transfer(address,uint256)": {
        "params": {
          "_to": "The address of the recipient",
          "_value": "The amount of token to be transferred"
        },
        "returns": {
          "success": "Whether the transfer was successful or not"
        }
      },
      "transferFrom(address,address,uint256)": {
        "params": {
          "_from": "The address of the sender",
          "_to": "The address of the recipient",
          "_value": "The amount of token to be transferred"
        },
        "returns": {
          "success": "Whether the transfer was successful or not"
        }
      },
      "transferOwnership(address)": {
        "details": "Transfers ownership of the contract to a new account (`newOwner`). Can only be called by the current owner."
      }
    },
    "version": 1
  },
  "userdoc": {
    "kind": "user",
    "methods": {
      "transfer(address,uint256)": {
        "notice": "send `_value` token to `_to` from `msg.sender`"
      },
      "transferFrom(address,address,uint256)": {
        "notice": "send `_value` token to `_to` from `_from` on the condition it is approved by `_from`"
      }
    },
    "version": 1
  }
}